{
  "_format": "hh-sol-artifact-1",
  "contractName": "TouristSafety",
  "sourceName": "contracts/TouristSafety.sol",
  "abi": [
    {
      "inputs": [],
      "stateMutability": "nonpayable",
      "type": "constructor"
    },
    {
      "inputs": [
        {
          "internalType": "address",
          "name": "sender",
          "type": "address"
        },
        {
          "internalType": "uint256",
          "name": "tokenId",
          "type": "uint256"
        },
        {
          "internalType": "address",
          "name": "owner",
          "type": "address"
        }
      ],
      "name": "ERC721IncorrectOwner",
      "type": "error"
    },
    {
      "inputs": [
        {
          "internalType": "address",
          "name": "operator",
          "type": "address"
        },
        {
          "internalType": "uint256",
          "name": "tokenId",
          "type": "uint256"
        }
      ],
      "name": "ERC721InsufficientApproval",
      "type": "error"
    },
    {
      "inputs": [
        {
          "internalType": "address",
          "name": "approver",
          "type": "address"
        }
      ],
      "name": "ERC721InvalidApprover",
      "type": "error"
    },
    {
      "inputs": [
        {
          "internalType": "address",
          "name": "operator",
          "type": "address"
        }
      ],
      "name": "ERC721InvalidOperator",
      "type": "error"
    },
    {
      "inputs": [
        {
          "internalType": "address",
          "name": "owner",
          "type": "address"
        }
      ],
      "name": "ERC721InvalidOwner",
      "type": "error"
    },
    {
      "inputs": [
        {
          "internalType": "address",
          "name": "receiver",
          "type": "address"
        }
      ],
      "name": "ERC721InvalidReceiver",
      "type": "error"
    },
    {
      "inputs": [
        {
          "internalType": "address",
          "name": "sender",
          "type": "address"
        }
      ],
      "name": "ERC721InvalidSender",
      "type": "error"
    },
    {
      "inputs": [
        {
          "internalType": "uint256",
          "name": "tokenId",
          "type": "uint256"
        }
      ],
      "name": "ERC721NonexistentToken",
      "type": "error"
    },
    {
      "inputs": [
        {
          "internalType": "address",
          "name": "owner",
          "type": "address"
        }
      ],
      "name": "OwnableInvalidOwner",
      "type": "error"
    },
    {
      "inputs": [
        {
          "internalType": "address",
          "name": "account",
          "type": "address"
        }
      ],
      "name": "OwnableUnauthorizedAccount",
      "type": "error"
    },
    {
      "anonymous": false,
      "inputs": [
        {
          "indexed": true,
          "internalType": "address",
          "name": "owner",
          "type": "address"
        },
        {
          "indexed": true,
          "internalType": "address",
          "name": "approved",
          "type": "address"
        },
        {
          "indexed": true,
          "internalType": "uint256",
          "name": "tokenId",
          "type": "uint256"
        }
      ],
      "name": "Approval",
      "type": "event"
    },
    {
      "anonymous": false,
      "inputs": [
        {
          "indexed": true,
          "internalType": "address",
          "name": "owner",
          "type": "address"
        },
        {
          "indexed": true,
          "internalType": "address",
          "name": "operator",
          "type": "address"
        },
        {
          "indexed": false,
          "internalType": "bool",
          "name": "approved",
          "type": "bool"
        }
      ],
      "name": "ApprovalForAll",
      "type": "event"
    },
    {
      "anonymous": false,
      "inputs": [
        {
          "indexed": true,
          "internalType": "uint256",
          "name": "incidentId",
          "type": "uint256"
        },
        {
          "indexed": false,
          "internalType": "uint256",
          "name": "touristId",
          "type": "uint256"
        },
        {
          "indexed": true,
          "internalType": "bytes32",
          "name": "aadhaarHash",
          "type": "bytes32"
        }
      ],
      "name": "IncidentRecorded",
      "type": "event"
    },
    {
      "anonymous": false,
      "inputs": [
        {
          "indexed": true,
          "internalType": "address",
          "name": "previousOwner",
          "type": "address"
        },
        {
          "indexed": true,
          "internalType": "address",
          "name": "newOwner",
          "type": "address"
        }
      ],
      "name": "OwnershipTransferred",
      "type": "event"
    },
    {
      "anonymous": false,
      "inputs": [
        {
          "indexed": true,
          "internalType": "address",
          "name": "owner",
          "type": "address"
        },
        {
          "indexed": false,
          "internalType": "uint256",
          "name": "touristId",
          "type": "uint256"
        },
        {
          "indexed": true,
          "internalType": "bytes32",
          "name": "aadhaarHash",
          "type": "bytes32"
        }
      ],
      "name": "TouristRegistered",
      "type": "event"
    },
    {
      "anonymous": false,
      "inputs": [
        {
          "indexed": true,
          "internalType": "address",
          "name": "from",
          "type": "address"
        },
        {
          "indexed": true,
          "internalType": "address",
          "name": "to",
          "type": "address"
        },
        {
          "indexed": true,
          "internalType": "uint256",
          "name": "tokenId",
          "type": "uint256"
        }
      ],
      "name": "Transfer",
      "type": "event"
    },
    {
      "inputs": [
        {
          "internalType": "bytes32",
          "name": "",
          "type": "bytes32"
        }
      ],
      "name": "aadhaarToTouristId",
      "outputs": [
        {
          "internalType": "uint256",
          "name": "",
          "type": "uint256"
        }
      ],
      "stateMutability": "view",
      "type": "function"
    },
    {
      "inputs": [
        {
          "internalType": "address",
          "name": "to",
          "type": "address"
        },
        {
          "internalType": "uint256",
          "name": "tokenId",
          "type": "uint256"
        }
      ],
      "name": "approve",
      "outputs": [],
      "stateMutability": "nonpayable",
      "type": "function"
    },
    {
      "inputs": [
        {
          "internalType": "address",
          "name": "owner",
          "type": "address"
        }
      ],
      "name": "balanceOf",
      "outputs": [
        {
          "internalType": "uint256",
          "name": "",
          "type": "uint256"
        }
      ],
      "stateMutability": "view",
      "type": "function"
    },
    {
      "inputs": [
        {
          "internalType": "uint256",
          "name": "_touristId",
          "type": "uint256"
        }
      ],
      "name": "getAadhaarHash",
      "outputs": [
        {
          "internalType": "bytes32",
          "name": "",
          "type": "bytes32"
        }
      ],
      "stateMutability": "view",
      "type": "function"
    },
    {
      "inputs": [
        {
          "internalType": "uint256",
          "name": "tokenId",
          "type": "uint256"
        }
      ],
      "name": "getApproved",
      "outputs": [
        {
          "internalType": "address",
          "name": "",
          "type": "address"
        }
      ],
      "stateMutability": "view",
      "type": "function"
    },
    {
      "inputs": [
        {
          "internalType": "address",
          "name": "owner",
          "type": "address"
        },
        {
          "internalType": "address",
          "name": "operator",
          "type": "address"
        }
      ],
      "name": "isApprovedForAll",
      "outputs": [
        {
          "internalType": "bool",
          "name": "",
          "type": "bool"
        }
      ],
      "stateMutability": "view",
      "type": "function"
    },
    {
      "inputs": [
        {
          "internalType": "uint256",
          "name": "",
          "type": "uint256"
        }
      ],
      "name": "isIncidentActive",
      "outputs": [
        {
          "internalType": "bool",
          "name": "",
          "type": "bool"
        }
      ],
      "stateMutability": "view",
      "type": "function"
    },
    {
      "inputs": [],
      "name": "name",
      "outputs": [
        {
          "internalType": "string",
          "name": "",
          "type": "string"
        }
      ],
      "stateMutability": "view",
      "type": "function"
    },
    {
      "inputs": [],
      "name": "owner",
      "outputs": [
        {
          "internalType": "address",
          "name": "",
          "type": "address"
        }
      ],
      "stateMutability": "view",
      "type": "function"
    },
    {
      "inputs": [
        {
          "internalType": "uint256",
          "name": "tokenId",
          "type": "uint256"
        }
      ],
      "name": "ownerOf",
      "outputs": [
        {
          "internalType": "address",
          "name": "",
          "type": "address"
        }
      ],
      "stateMutability": "view",
      "type": "function"
    },
    {
      "inputs": [
        {
          "internalType": "uint256",
          "name": "_touristId",
          "type": "uint256"
        }
      ],
      "name": "recordIncident",
      "outputs": [],
      "stateMutability": "nonpayable",
      "type": "function"
    },
    {
      "inputs": [
        {
          "internalType": "bytes32",
          "name": "_aadhaarHash",
          "type": "bytes32"
        }
      ],
      "name": "registerTourist",
      "outputs": [],
      "stateMutability": "nonpayable",
      "type": "function"
    },
    {
      "inputs": [],
      "name": "renounceOwnership",
      "outputs": [],
      "stateMutability": "nonpayable",
      "type": "function"
    },
    {
      "inputs": [
        {
          "internalType": "address",
          "name": "from",
          "type": "address"
        },
        {
          "internalType": "address",
          "name": "to",
          "type": "address"
        },
        {
          "internalType": "uint256",
          "name": "tokenId",
          "type": "uint256"
        }
      ],
      "name": "safeTransferFrom",
      "outputs": [],
      "stateMutability": "nonpayable",
      "type": "function"
    },
    {
      "inputs": [
        {
          "internalType": "address",
          "name": "from",
          "type": "address"
        },
        {
          "internalType": "address",
          "name": "to",
          "type": "address"
        },
        {
          "internalType": "uint256",
          "name": "tokenId",
          "type": "uint256"
        },
        {
          "internalType": "bytes",
          "name": "data",
          "type": "bytes"
        }
      ],
      "name": "safeTransferFrom",
      "outputs": [],
      "stateMutability": "nonpayable",
      "type": "function"
    },
    {
      "inputs": [
        {
          "internalType": "address",
          "name": "operator",
          "type": "address"
        },
        {
          "internalType": "bool",
          "name": "approved",
          "type": "bool"
        }
      ],
      "name": "setApprovalForAll",
      "outputs": [],
      "stateMutability": "nonpayable",
      "type": "function"
    },
    {
      "inputs": [
        {
          "internalType": "bytes4",
          "name": "interfaceId",
          "type": "bytes4"
        }
      ],
      "name": "supportsInterface",
      "outputs": [
        {
          "internalType": "bool",
          "name": "",
          "type": "bool"
        }
      ],
      "stateMutability": "view",
      "type": "function"
    },
    {
      "inputs": [],
      "name": "symbol",
      "outputs": [
        {
          "internalType": "string",
          "name": "",
          "type": "string"
        }
      ],
      "stateMutability": "view",
      "type": "function"
    },
    {
      "inputs": [
        {
          "internalType": "uint256",
          "name": "tokenId",
          "type": "uint256"
        }
      ],
      "name": "tokenURI",
      "outputs": [
        {
          "internalType": "string",
          "name": "",
          "type": "string"
        }
      ],
      "stateMutability": "view",
      "type": "function"
    },
    {
      "inputs": [
        {
          "internalType": "address",
          "name": "from",
          "type": "address"
        },
        {
          "internalType": "address",
          "name": "to",
          "type": "address"
        },
        {
          "internalType": "uint256",
          "name": "tokenId",
          "type": "uint256"
        }
      ],
      "name": "transferFrom",
      "outputs": [],
      "stateMutability": "nonpayable",
      "type": "function"
    },
    {
      "inputs": [
        {
          "internalType": "address",
          "name": "newOwner",
          "type": "address"
        }
      ],
      "name": "transferOwnership",
      "outputs": [],
      "stateMutability": "nonpayable",
      "type": "function"
    }
  ],
  "bytecode": "0x60806040523480156200001157600080fd5b50336040518060400160405280601081526020017f546f75726973745361666574794e4654000000000000000000000000000000008152506040518060400160405280600381526020017f54534e0000000000000000000000000000000000000000000000000000000000815250816000908162000090919062000472565b508060019081620000a2919062000472565b505050600073ffffffffffffffffffffffffffffffffffffffff168173ffffffffffffffffffffffffffffffffffffffff16036200011a5760006040517f1e4fbdf70000000000000000000000000000000000000000000000000000000081526004016200011191906200059e565b60405180910390fd5b6200012b816200013260201b60201c565b50620005bb565b6000600660009054906101000a900473ffffffffffffffffffffffffffffffffffffffff16905081600660006101000a81548173ffffffffffffffffffffffffffffffffffffffff021916908373ffffffffffffffffffffffffffffffffffffffff1602179055508173ffffffffffffffffffffffffffffffffffffffff168173ffffffffffffffffffffffffffffffffffffffff167f8be0079c531659141344cd1fd0a4f28419497f9722a3daafe3b4186f6b6457e060405160405180910390a35050565b600081519050919050565b7f4e487b7100000000000000000000000000000000000000000000000000000000600052604160045260246000fd5b7f4e487b7100000000000000000000000000000000000000000000000000000000600052602260045260246000fd5b600060028204905060018216806200027a57607f821691505b60208210810362000290576200028f62000232565b5b50919050565b60008190508160005260206000209050919050565b60006020601f8301049050919050565b600082821b905092915050565b600060088302620002fa7fffffffffffffffffffffffffffffffffffffffffffffffffffffffffffffffff82620002bb565b620003068683620002bb565b95508019841693508086168417925050509392505050565b6000819050919050565b6000819050919050565b6000620003536200034d62000347846200031e565b62000328565b6200031e565b9050919050565b6000819050919050565b6200036f8362000332565b620003876200037e826200035a565b848454620002c8565b825550505050565b600090565b6200039e6200038f565b620003ab81848462000364565b505050565b5b81811015620003d357620003c760008262000394565b600181019050620003b1565b5050565b601f8211156200042257620003ec8162000296565b620003f784620002ab565b8101602085101562000407578190505b6200041f6200041685620002ab565b830182620003b0565b50505b505050565b600082821c905092915050565b6000620004476000198460080262000427565b1980831691505092915050565b600062000462838362000434565b9150826002028217905092915050565b6200047d82620001f8565b67ffffffffffffffff81111562000499576200049862000203565b5b620004a5825462000261565b620004b2828285620003d7565b600060209050601f831160018114620004ea5760008415620004d5578287015190505b620004e1858262000454565b86555062000551565b601f198416620004fa8662000296565b60005b828110156200052457848901518255600182019150602085019450602081019050620004fd565b8683101562000544578489015162000540601f89168262000434565b8355505b6001600288020188555050505b505050505050565b600073ffffffffffffffffffffffffffffffffffffffff82169050919050565b6000620005868262000559565b9050919050565b620005988162000579565b82525050565b6000602082019050620005b560008301846200058d565b92915050565b6126e080620005cb6000396000f3fe608060405234801561001057600080fd5b50600436106101375760003560e01c80636352211e116100b8578063a22cb4651161007c578063a22cb46514610360578063b88d4fde1461037c578063c87b56dd14610398578063d653f932146103c8578063e985e9c5146103e4578063f2fde38b1461041457610137565b80636352211e146102ba57806370a08231146102ea578063715018a61461031a5780638da5cb5b1461032457806395d89b411461034257610137565b806323b872dd116100ff57806323b872dd146102065780632981917c14610222578063353297f91461025257806342842e0e146102825780635f2e2a111461029e57610137565b806301ffc9a71461013c57806306fdde031461016c578063081812fc1461018a578063095ea7b3146101ba57806318c14c40146101d6575b600080fd5b61015660048036038101906101519190611c50565b610430565b6040516101639190611c98565b60405180910390f35b610174610512565b6040516101819190611d43565b60405180910390f35b6101a4600480360381019061019f9190611d9b565b6105a4565b6040516101b19190611e09565b60405180910390f35b6101d460048036038101906101cf9190611e50565b6105c0565b005b6101f060048036038101906101eb9190611ec6565b6105d6565b6040516101fd9190611f02565b60405180910390f35b610220600480360381019061021b9190611f1d565b6105ee565b005b61023c60048036038101906102379190611d9b565b6106f0565b6040516102499190611f7f565b60405180910390f35b61026c60048036038101906102679190611d9b565b610765565b6040516102799190611c98565b60405180910390f35b61029c60048036038101906102979190611f1d565b610785565b005b6102b860048036038101906102b39190611ec6565b6107a5565b005b6102d460048036038101906102cf9190611d9b565b6108af565b6040516102e19190611e09565b60405180910390f35b61030460048036038101906102ff9190611f9a565b6108c1565b6040516103119190611f02565b60405180910390f35b61032261097b565b005b61032c61098f565b6040516103399190611e09565b60405180910390f35b61034a6109b9565b6040516103579190611d43565b60405180910390f35b61037a60048036038101906103759190611ff3565b610a4b565b005b61039660048036038101906103919190612168565b610a61565b005b6103b260048036038101906103ad9190611d9b565b610a86565b6040516103bf9190611d43565b60405180910390f35b6103e260048036038101906103dd9190611d9b565b610aef565b005b6103fe60048036038101906103f991906121eb565b610c42565b60405161040b9190611c98565b60405180910390f35b61042e60048036038101906104299190611f9a565b610cd6565b005b60007f80ac58cd000000000000000000000000000000000000000000000000000000007bffffffffffffffffffffffffffffffffffffffffffffffffffffffff1916827bffffffffffffffffffffffffffffffffffffffffffffffffffffffff191614806104fb57507f5b5e139f000000000000000000000000000000000000000000000000000000007bffffffffffffffffffffffffffffffffffffffffffffffffffffffff1916827bffffffffffffffffffffffffffffffffffffffffffffffffffffffff1916145b8061050b575061050a82610d5c565b5b9050919050565b6060600080546105219061225a565b80601f016020809104026020016040519081016040528092919081815260200182805461054d9061225a565b801561059a5780601f1061056f5761010080835404028352916020019161059a565b820191906000526020600020905b81548152906001019060200180831161057d57829003601f168201915b5050505050905090565b60006105af82610dc6565b506105b982610e4e565b9050919050565b6105d282826105cd610e8b565b610e93565b5050565b60076020528060005260406000206000915090505481565b600073ffffffffffffffffffffffffffffffffffffffff168273ffffffffffffffffffffffffffffffffffffffff16036106605760006040517f64a0ae920000000000000000000000000000000000000000000000000000000081526004016106579190611e09565b60405180910390fd5b6000610674838361066f610e8b565b610ea5565b90508373ffffffffffffffffffffffffffffffffffffffff168173ffffffffffffffffffffffffffffffffffffffff16146106ea578382826040517f64283d7b0000000000000000000000000000000000000000000000000000000081526004016106e19392919061228b565b60405180910390fd5b50505050565b60008060001b60096000848152602001908152602001600020540361074a576040517f08c379a00000000000000000000000000000000000000000000000000000000081526004016107419061230e565b60405180910390fd5b60096000838152602001908152602001600020549050919050565b60086020528060005260406000206000915054906101000a900460ff1681565b6107a083838360405180602001604052806000815250610a61565b505050565b6107ad6110bf565b6000600760008381526020019081526020016000205414610803576040517f08c379a00000000000000000000000000000000000000000000000000000000081526004016107fa9061237a565b60405180910390fd5b600a6000815480929190610816906123c9565b91905055506000600a54905061082c3382611146565b806007600084815260200190815260200160002081905550816009600083815260200190815260200160002081905550813373ffffffffffffffffffffffffffffffffffffffff167fa05194e5286d61581c3cc38e48008f4472857c607c357b2ce43e88fd0ff5ed2b836040516108a39190611f02565b60405180910390a35050565b60006108ba82610dc6565b9050919050565b60008073ffffffffffffffffffffffffffffffffffffffff168273ffffffffffffffffffffffffffffffffffffffff16036109345760006040517f89c62b6400000000000000000000000000000000000000000000000000000000815260040161092b9190611e09565b60405180910390fd5b600360008373ffffffffffffffffffffffffffffffffffffffff1673ffffffffffffffffffffffffffffffffffffffff168152602001908152602001600020549050919050565b6109836110bf565b61098d600061123f565b565b6000600660009054906101000a900473ffffffffffffffffffffffffffffffffffffffff16905090565b6060600180546109c89061225a565b80601f01602080910402602001604051908101604052809291908181526020018280546109f49061225a565b8015610a415780601f10610a1657610100808354040283529160200191610a41565b820191906000526020600020905b815481529060010190602001808311610a2457829003601f168201915b5050505050905090565b610a5d610a56610e8b565b8383611305565b5050565b610a6c8484846105ee565b610a80610a77610e8b565b85858585611474565b50505050565b6060610a9182610dc6565b506000610a9c611625565b90506000815111610abc5760405180602001604052806000815250610ae7565b80610ac68461163c565b604051602001610ad792919061244d565b6040516020818303038152906040525b915050919050565b610af76110bf565b600060076000600960008581526020019081526020016000205481526020019081526020016000205403610b60576040517f08c379a0000000000000000000000000000000000000000000000000000000008152600401610b57906124bd565b60405180910390fd5b600015156008600083815260200190815260200160002060009054906101000a900460ff16151514610bc7576040517f08c379a0000000000000000000000000000000000000000000000000000000008152600401610bbe9061254f565b60405180910390fd5b60016008600083815260200190815260200160002060006101000a81548160ff0219169083151502179055506009600082815260200190815260200160002054427f23f06fdd98aab60fb98b1780ef4dd58d14b036f786933c6fce4594d43424871c83604051610c379190611f02565b60405180910390a350565b6000600560008473ffffffffffffffffffffffffffffffffffffffff1673ffffffffffffffffffffffffffffffffffffffff16815260200190815260200160002060008373ffffffffffffffffffffffffffffffffffffffff1673ffffffffffffffffffffffffffffffffffffffff16815260200190815260200160002060009054906101000a900460ff16905092915050565b610cde6110bf565b600073ffffffffffffffffffffffffffffffffffffffff168173ffffffffffffffffffffffffffffffffffffffff1603610d505760006040517f1e4fbdf7000000000000000000000000000000000000000000000000000000008152600401610d479190611e09565b60405180910390fd5b610d598161123f565b50565b60007f01ffc9a7000000000000000000000000000000000000000000000000000000007bffffffffffffffffffffffffffffffffffffffffffffffffffffffff1916827bffffffffffffffffffffffffffffffffffffffffffffffffffffffff1916149050919050565b600080610dd28361170a565b9050600073ffffffffffffffffffffffffffffffffffffffff168173ffffffffffffffffffffffffffffffffffffffff1603610e4557826040517f7e273289000000000000000000000000000000000000000000000000000000008152600401610e3c9190611f02565b60405180910390fd5b80915050919050565b60006004600083815260200190815260200160002060009054906101000a900473ffffffffffffffffffffffffffffffffffffffff169050919050565b600033905090565b610ea08383836001611747565b505050565b600080610eb18461170a565b9050600073ffffffffffffffffffffffffffffffffffffffff168373ffffffffffffffffffffffffffffffffffffffff1614610ef357610ef281848661190c565b5b600073ffffffffffffffffffffffffffffffffffffffff168173ffffffffffffffffffffffffffffffffffffffff1614610f8457610f35600085600080611747565b6001600360008373ffffffffffffffffffffffffffffffffffffffff1673ffffffffffffffffffffffffffffffffffffffff168152602001908152602001600020600082825403925050819055505b600073ffffffffffffffffffffffffffffffffffffffff168573ffffffffffffffffffffffffffffffffffffffff1614611007576001600360008773ffffffffffffffffffffffffffffffffffffffff1673ffffffffffffffffffffffffffffffffffffffff168152602001908152602001600020600082825401925050819055505b846002600086815260200190815260200160002060006101000a81548173ffffffffffffffffffffffffffffffffffffffff021916908373ffffffffffffffffffffffffffffffffffffffff160217905550838573ffffffffffffffffffffffffffffffffffffffff168273ffffffffffffffffffffffffffffffffffffffff167fddf252ad1be2c89b69c2b068fc378daa952ba7f163c4a11628f55a4df523b3ef60405160405180910390a4809150509392505050565b6110c7610e8b565b73ffffffffffffffffffffffffffffffffffffffff166110e561098f565b73ffffffffffffffffffffffffffffffffffffffff161461114457611108610e8b565b6040517f118cdaa700000000000000000000000000000000000000000000000000000000815260040161113b9190611e09565b60405180910390fd5b565b600073ffffffffffffffffffffffffffffffffffffffff168273ffffffffffffffffffffffffffffffffffffffff16036111b85760006040517f64a0ae920000000000000000000000000000000000000000000000000000000081526004016111af9190611e09565b60405180910390fd5b60006111c683836000610ea5565b9050600073ffffffffffffffffffffffffffffffffffffffff168173ffffffffffffffffffffffffffffffffffffffff161461123a5760006040517f73c6ac6e0000000000000000000000000000000000000000000000000000000081526004016112319190611e09565b60405180910390fd5b505050565b6000600660009054906101000a900473ffffffffffffffffffffffffffffffffffffffff16905081600660006101000a81548173ffffffffffffffffffffffffffffffffffffffff021916908373ffffffffffffffffffffffffffffffffffffffff1602179055508173ffffffffffffffffffffffffffffffffffffffff168173ffffffffffffffffffffffffffffffffffffffff167f8be0079c531659141344cd1fd0a4f28419497f9722a3daafe3b4186f6b6457e060405160405180910390a35050565b600073ffffffffffffffffffffffffffffffffffffffff168273ffffffffffffffffffffffffffffffffffffffff160361137657816040517f5b08ba1800000000000000000000000000000000000000000000000000000000815260040161136d9190611e09565b60405180910390fd5b80600560008573ffffffffffffffffffffffffffffffffffffffff1673ffffffffffffffffffffffffffffffffffffffff16815260200190815260200160002060008473ffffffffffffffffffffffffffffffffffffffff1673ffffffffffffffffffffffffffffffffffffffff16815260200190815260200160002060006101000a81548160ff0219169083151502179055508173ffffffffffffffffffffffffffffffffffffffff168373ffffffffffffffffffffffffffffffffffffffff167f17307eab39ab6107e8899845ad3d59bd9653f200f220920489ca2b5937696c31836040516114679190611c98565b60405180910390a3505050565b60008373ffffffffffffffffffffffffffffffffffffffff163b111561161e578273ffffffffffffffffffffffffffffffffffffffff1663150b7a02868685856040518563ffffffff1660e01b81526004016114d394939291906125c4565b6020604051808303816000875af192505050801561150f57506040513d601f19601f8201168201806040525081019061150c9190612625565b60015b611593573d806000811461153f576040519150601f19603f3d011682016040523d82523d6000602084013e611544565b606091505b50600081510361158b57836040517f64a0ae920000000000000000000000000000000000000000000000000000000081526004016115829190611e09565b60405180910390fd5b805160208201fd5b63150b7a0260e01b7bffffffffffffffffffffffffffffffffffffffffffffffffffffffff1916817bffffffffffffffffffffffffffffffffffffffffffffffffffffffff19161461161c57836040517f64a0ae920000000000000000000000000000000000000000000000000000000081526004016116139190611e09565b60405180910390fd5b505b5050505050565b606060405180602001604052806000815250905090565b60606000600161164b846119d0565b01905060008167ffffffffffffffff81111561166a5761166961203d565b5b6040519080825280601f01601f19166020018201604052801561169c5781602001600182028036833780820191505090505b509050600082602083010190505b6001156116ff578080600190039150507f3031323334353637383961626364656600000000000000000000000000000000600a86061a8153600a85816116f3576116f2612652565b5b049450600085036116aa575b819350505050919050565b60006002600083815260200190815260200160002060009054906101000a900473ffffffffffffffffffffffffffffffffffffffff169050919050565b80806117805750600073ffffffffffffffffffffffffffffffffffffffff168273ffffffffffffffffffffffffffffffffffffffff1614155b156118b457600061179084610dc6565b9050600073ffffffffffffffffffffffffffffffffffffffff168373ffffffffffffffffffffffffffffffffffffffff16141580156117fb57508273ffffffffffffffffffffffffffffffffffffffff168173ffffffffffffffffffffffffffffffffffffffff1614155b801561180e575061180c8184610c42565b155b1561185057826040517fa9fbf51f0000000000000000000000000000000000000000000000000000000081526004016118479190611e09565b60405180910390fd5b81156118b257838573ffffffffffffffffffffffffffffffffffffffff168273ffffffffffffffffffffffffffffffffffffffff167f8c5be1e5ebec7d5bd14f71427d1e84f3dd0314c0f7b2291e5b200ac8c7c3b92560405160405180910390a45b505b836004600085815260200190815260200160002060006101000a81548173ffffffffffffffffffffffffffffffffffffffff021916908373ffffffffffffffffffffffffffffffffffffffff16021790555050505050565b611917838383611b23565b6119cb57600073ffffffffffffffffffffffffffffffffffffffff168373ffffffffffffffffffffffffffffffffffffffff160361198c57806040517f7e2732890000000000000000000000000000000000000000000000000000000081526004016119839190611f02565b60405180910390fd5b81816040517f177e802f0000000000000000000000000000000000000000000000000000000081526004016119c2929190612681565b60405180910390fd5b505050565b600080600090507a184f03e93ff9f4daa797ed6e38ed64bf6a1f0100000000000000008310611a2e577a184f03e93ff9f4daa797ed6e38ed64bf6a1f0100000000000000008381611a2457611a23612652565b5b0492506040810190505b6d04ee2d6d415b85acef81000000008310611a6b576d04ee2d6d415b85acef81000000008381611a6157611a60612652565b5b0492506020810190505b662386f26fc100008310611a9a57662386f26fc100008381611a9057611a8f612652565b5b0492506010810190505b6305f5e1008310611ac3576305f5e1008381611ab957611ab8612652565b5b0492506008810190505b6127108310611ae8576127108381611ade57611add612652565b5b0492506004810190505b60648310611b0b5760648381611b0157611b00612652565b5b0492506002810190505b600a8310611b1a576001810190505b80915050919050565b60008073ffffffffffffffffffffffffffffffffffffffff168373ffffffffffffffffffffffffffffffffffffffff1614158015611bdb57508273ffffffffffffffffffffffffffffffffffffffff168473ffffffffffffffffffffffffffffffffffffffff161480611b9c5750611b9b8484610c42565b5b80611bda57508273ffffffffffffffffffffffffffffffffffffffff16611bc283610e4e565b73ffffffffffffffffffffffffffffffffffffffff16145b5b90509392505050565b6000604051905090565b600080fd5b600080fd5b60007fffffffff0000000000000000000000000000000000000000000000000000000082169050919050565b611c2d81611bf8565b8114611c3857600080fd5b50565b600081359050611c4a81611c24565b92915050565b600060208284031215611c6657611c65611bee565b5b6000611c7484828501611c3b565b91505092915050565b60008115159050919050565b611c9281611c7d565b82525050565b6000602082019050611cad6000830184611c89565b92915050565b600081519050919050565b600082825260208201905092915050565b60005b83811015611ced578082015181840152602081019050611cd2565b60008484015250505050565b6000601f19601f8301169050919050565b6000611d1582611cb3565b611d1f8185611cbe565b9350611d2f818560208601611ccf565b611d3881611cf9565b840191505092915050565b60006020820190508181036000830152611d5d8184611d0a565b905092915050565b6000819050919050565b611d7881611d65565b8114611d8357600080fd5b50565b600081359050611d9581611d6f565b92915050565b600060208284031215611db157611db0611bee565b5b6000611dbf84828501611d86565b91505092915050565b600073ffffffffffffffffffffffffffffffffffffffff82169050919050565b6000611df382611dc8565b9050919050565b611e0381611de8565b82525050565b6000602082019050611e1e6000830184611dfa565b92915050565b611e2d81611de8565b8114611e3857600080fd5b50565b600081359050611e4a81611e24565b92915050565b60008060408385031215611e6757611e66611bee565b5b6000611e7585828601611e3b565b9250506020611e8685828601611d86565b9150509250929050565b6000819050919050565b611ea381611e90565b8114611eae57600080fd5b50565b600081359050611ec081611e9a565b92915050565b600060208284031215611edc57611edb611bee565b5b6000611eea84828501611eb1565b91505092915050565b611efc81611d65565b82525050565b6000602082019050611f176000830184611ef3565b92915050565b600080600060608486031215611f3657611f35611bee565b5b6000611f4486828701611e3b565b9350506020611f5586828701611e3b565b9250506040611f6686828701611d86565b9150509250925092565b611f7981611e90565b82525050565b6000602082019050611f946000830184611f70565b92915050565b600060208284031215611fb057611faf611bee565b5b6000611fbe84828501611e3b565b91505092915050565b611fd081611c7d565b8114611fdb57600080fd5b50565b600081359050611fed81611fc7565b92915050565b6000806040838503121561200a57612009611bee565b5b600061201885828601611e3b565b925050602061202985828601611fde565b9150509250929050565b600080fd5b600080fd5b7f4e487b7100000000000000000000000000000000000000000000000000000000600052604160045260246000fd5b61207582611cf9565b810181811067ffffffffffffffff821117156120945761209361203d565b5b80604052505050565b60006120a7611be4565b90506120b3828261206c565b919050565b600067ffffffffffffffff8211156120d3576120d261203d565b5b6120dc82611cf9565b9050602081019050919050565b82818337600083830152505050565b600061210b612106846120b8565b61209d565b90508281526020810184848401111561212757612126612038565b5b6121328482856120e9565b509392505050565b600082601f83011261214f5761214e612033565b5b813561215f8482602086016120f8565b91505092915050565b6000806000806080858703121561218257612181611bee565b5b600061219087828801611e3b565b94505060206121a187828801611e3b565b93505060406121b287828801611d86565b925050606085013567ffffffffffffffff8111156121d3576121d2611bf3565b5b6121df8782880161213a565b91505092959194509250565b6000806040838503121561220257612201611bee565b5b600061221085828601611e3b565b925050602061222185828601611e3b565b9150509250929050565b7f4e487b7100000000000000000000000000000000000000000000000000000000600052602260045260246000fd5b6000600282049050600182168061227257607f821691505b6020821081036122855761228461222b565b5b50919050565b60006060820190506122a06000830186611dfa565b6122ad6020830185611ef3565b6122ba6040830184611dfa565b949350505050565b7f546f7572697374204944206e6f7420666f756e64000000000000000000000000600082015250565b60006122f8601483611cbe565b9150612303826122c2565b602082019050919050565b60006020820190508181036000830152612327816122eb565b9050919050565b7f41616468616172206861736820616c7265616479207265676973746572656400600082015250565b6000612364601f83611cbe565b915061236f8261232e565b602082019050919050565b6000602082019050818103600083015261239381612357565b9050919050565b7f4e487b7100000000000000000000000000000000000000000000000000000000600052601160045260246000fd5b60006123d482611d65565b91507fffffffffffffffffffffffffffffffffffffffffffffffffffffffffffffffff82036124065761240561239a565b5b600182019050919050565b600081905092915050565b600061242782611cb3565b6124318185612411565b9350612441818560208601611ccf565b80840191505092915050565b6000612459828561241c565b9150612465828461241c565b91508190509392505050565b7f546f7572697374204944206d7573742062652076616c69640000000000000000600082015250565b60006124a7601883611cbe565b91506124b282612471565b602082019050919050565b600060208201905081810360008301526124d68161249a565b9050919050565b7f496e636964656e7420616c72656164792061637469766520666f72207468697360008201527f20746f7572697374000000000000000000000000000000000000000000000000602082015250565b6000612539602883611cbe565b9150612544826124dd565b604082019050919050565b600060208201905081810360008301526125688161252c565b9050919050565b600081519050919050565b600082825260208201905092915050565b60006125968261256f565b6125a0818561257a565b93506125b0818560208601611ccf565b6125b981611cf9565b840191505092915050565b60006080820190506125d96000830187611dfa565b6125e66020830186611dfa565b6125f36040830185611ef3565b8181036060830152612605818461258b565b905095945050505050565b60008151905061261f81611c24565b92915050565b60006020828403121561263b5761263a611bee565b5b600061264984828501612610565b91505092915050565b7f4e487b7100000000000000000000000000000000000000000000000000000000600052601260045260246000fd5b60006040820190506126966000830185611dfa565b6126a36020830184611ef3565b939250505056fea26469706673582212201baeabb9b09b156d7e35fadf883a75b1bc3fc4587ff4feffa4984813be0bb48c64736f6c63430008140033",
  "linkReferences": {},
  "deployedLinkReferences": {}
}